:100000000C9462000C948A000C948A000C948A0070
:100010000C948A000C948A000C948A000C948A0038
:100020000C948A000C948A000C948A000C948A0028
:100030000C948A000C948A000C948A000C948A0018
:100040000C942B020C948A000C94DF040C94110580
:100050000C948A000C948A000C948A000C948A00F8
:100060000C948A000C948A00000000080002010031
:100070000003040700000000000000000102040863
:100080001020408001020408102001020408102002
:10009000040404040404040402020202020203032E
:1000A00003030303000000002300260029000000D2
:1000B0000000250028002B0000000000240027007D
:1000C0002A00410511241FBECFEFD8E0DEBFCDBF0F
:1000D00012E0A0E0B1E0E4E4FEE002C005900D9281
:1000E000AA34B107D9F723E0AAE4B2E001C01D9217
:1000F000AF30B207E1F710E0C4ECD0E004C02297C3
:10010000FE010E941C07C23CD107C9F70E94850569
:100110000C9420070C94000026E040E052EC61E0D3
:1001200070E082E792E00E947D0461E08DE00E9431
:10013000020360E084E00E94020388E49EEE909354
:100140000B0180930A0108956EE071E082E792E06E
:100150000E94DF054091560250915702609158026B
:10016000709159022AE030E082E792E00E94E606B0
:1001700068E271E082E792E00E94DF0567E471E0E7
:1001800082E792E00E94D2054AE050E06091680266
:1001900082E792E00E94B90664E671E082E792E0AD
:1001A0000E94D20560915A0270915B024AE050E0D1
:1001B00082E792E00E94D00661E871E082E792E077
:1001C0000E94D20560910A0170910B014AE050E053
:1001D00082E792E00E94D0066EE971E082E792E049
:1001E0000E94D2056091660270E04AE050E082E72A
:1001F00092E00E9494066BEB71E082E792E00E942D
:10020000D2056091650270E04AE050E082E792E03A
:100210000E94940668ED71E082E792E00E94D205A8
:1002200040915C0250915D0260915E0270915F02AC
:100230002AE030E082E792E00E94E60665EF71E096
:1002400082E792E00E94D2054091600250916102E3
:1002500060916202709163022AE030E082E792E0EE
:100260000E94E6066AE172E082E792E00E94D2050F
:1002700060910801709109014AE050E082E792E044
:100280000C9494060F931F930E947502609356027C
:1002900070935702809358029093590200914E0236
:1002A00010914F022091500230915102AB01BC01DC
:1002B000401B510B620B730B80910401909105015F
:1002C000A0910601B0910701481759076A077B07FB
:1002D00008F46AC084E00E947103809368029091E0
:1002E00067024091560250915702609158027091F6
:1002F0005902891761F091E0909364024093600283
:1003000050936102609362027093630202C0109284
:10031000640220915A0230915B02813001F5E09134
:100320000A01F0910B01E217F30780F0F901319611
:10033000F0935B02E0935A0290916402911106C01F
:10034000235F3F4F30935B0220935A0240935C023D
:1003500050935D0260935E0270935F0209C02115A5
:10036000310531F02150310930935B0220935A025C
:1003700020915A0230915B02E0910C01F0E02E17BF
:100380003F0720F091E09093650204C0232B11F405
:100390001092650240934E0250934F0260935002B8
:1003A0007093510280936702809156029091570298
:1003B000A0915802B091590240914A0250914B02CB
:1003C00060914C0270914D02841B950BA60BB70BEC
:1003D000409100015091010160910201709103016F
:1003E00084179507A607B70718F18EE00E94BC0294
:1003F00090930901809308010E94A40080916502F6
:10040000882311F061E001C060E08DE00E943B03B1
:100410008091560290915702A0915802B0915902D2
:1004200080934A0290934B02A0934C02B0934D02EA
:100430008091560290915702A0915802B0915902B2
:100440008093520290935302A0935402B0935502AA
:100450001F910F9108951F920F920FB60F921124C2
:100460002F933F938F939F93AF93BF9380916A0293
:1004700090916B02A0916C02B0916D023091690273
:1004800023E0230F2D3720F40196A11DB11D05C0D7
:1004900026E8230F0296A11DB11D209369028093C7
:1004A0006A0290936B02A0936C02B0936D028091EC
:1004B0006E0290916F02A0917002B091710201964C
:1004C000A11DB11D80936E0290936F02A0937002E4
:1004D000B0937102BF91AF919F918F913F912F91F6
:1004E0000F900FBE0F901F9018952FB7F894609142
:1004F0006A0270916B0280916C0290916D022FBF25
:100500000895789484B5826084BD84B5816084BD8B
:1005100085B5826085BD85B5816085BDEEE6F0E07C
:10052000808181608083E1E8F0E0108280818260D8
:100530008083808181608083E0E8F0E08081816059
:100540008083E1EBF0E0808184608083E0EBF0E089
:10055000808181608083EAE7F0E08081846080832D
:1005600080818260808380818160808380818068D7
:1005700080831092C10008958E3008F08E508770ED
:1005800020910D0190E4299F90011124822B8093EA
:100590007C0080917A00806480937A0080917A0058
:1005A00086FDFCCF809178002091790090E0922B1D
:1005B0000895833081F028F4813099F08230A1F0E1
:1005C00008958730A9F08830B9F08430D1F4809153
:1005D00080008F7D03C0809180008F7780938000A2
:1005E000089584B58F7702C084B58F7D84BD08954A
:1005F0008091B0008F7703C08091B0008F7D809391
:10060000B0000895CF93DF9390E0FC01E458FF4FD2
:100610002491FC01E057FF4F8491882349F190E039
:10062000880F991FFC01E854FF4FA591B4918255A2
:100630009F4FFC01C591D4919FB7611108C0F894F8
:100640008C91209582238C93888182230AC062300A
:1006500051F4F8948C91322F309583238C938881B8
:10066000822B888304C0F8948C91822B8C939FBF3B
:10067000DF91CF9108950F931F93CF93DF931F9234
:10068000CDB7DEB7282F30E0F901E859FF4F84914C
:10069000F901E458FF4F1491F901E057FF4F04911D
:1006A0000023C9F0882321F069830E94D90269815F
:1006B000E02FF0E0EE0FFF1FE255FF4FA591B49140
:1006C0009FB7F8948C91611103C01095812301C0EC
:1006D000812B8C939FBF0F90DF91CF911F910F9132
:1006E0000895CF93DF93282F30E0F901E859FF4FA9
:1006F0008491F901E458FF4FD491F901E057FF4F7D
:10070000C491CC2391F081110E94D902EC2FF0E02A
:10071000EE0FFF1FEC55FF4FA591B4912C912D23A7
:1007200081E090E021F480E002C080E090E0DF9181
:10073000CF910895FC01818D228D90E0805C9F4FC8
:10074000821B91098F7399270895FC01918D828DE9
:10075000981731F0828DE80FF11D858D90E0089596
:100760008FEF9FEF0895FC01918D828D981761F0B6
:10077000828DDF01A80FB11D5D968C91928D9F5FD8
:100780009F73928F90E008958FEF9FEF089587E316
:1007900095E0892B49F080E090E0892B29F00E94B8
:1007A000370581110C9400000895FC01848DDF0150
:1007B000A80FB11DA35ABF4F2C91848D90E00196D4
:1007C0008F739927848FA689B7892C93A089B189C3
:1007D0008C9180648C93938D848D981306C00288CD
:1007E000F389E02D80818F7D80830895CF93DF93FF
:1007F000EC01888D8823C9F0EA89FB89808185FD19
:1008000005C0A889B9898C9186FD0FC00FB607FC79
:10081000F5CF808185FFF2CFA889B9898C9185FFBA
:10082000EDCFCE010E94D503E7CFDF91CF910895A0
:10083000CF92DF92FF920F931F93CF93DF931F927C
:10084000CDB7DEB76C0181E0D60158968C935897EE
:100850005B969C915B975C968C915C97981307C014
:100860005096ED91FC915197808185FD2EC0F60147
:10087000038D10E00F5F1F4F0F731127F02EF6014D
:10088000848DF81211C00FB607FCF9CFD60150962F
:10089000ED91FC915197808185FFF1CFC60169836D
:1008A0000E94D5036981EBCF838DE80FF11DE35AD8
:1008B000FF4F6083D6015B960C935B975296ED9148
:1008C000FC915397808180620CC0D6015696ED91C1
:1008D000FC91579760835096ED91FC9151978081E0
:1008E0008064808381E090E00F90DF91CF911F9131
:1008F0000F91FF90DF90CF900895BF92CF92DF923B
:10090000EF92FF92CF93DF93EC016A017B01B22E4D
:10091000E889F98982E08083411581EE58076105F5
:100920007105A1F060E079E08DE390E0A701960108
:100930000E94F80621503109410951095695479501
:1009400037952795211580E1380798F0E889F989CE
:10095000108260E874E88EE190E0A70196010E94A1
:10096000F8062150310941095109569547953795A7
:100970002795EC85FD853083EE85FF852083188ED5
:10098000EC89FD89B082EA89FB898081806180835E
:10099000EA89FB89808188608083EA89FB8980817C
:1009A00080688083EA89FB8980818F7D8083DF91E5
:1009B000CF91FF90EF90DF90CF90BF9008951F925E
:1009C0000F920FB60F9211242F938F939F93EF9353
:1009D000FF93E0918202F09183028081E09188028E
:1009E000F091890282FD12C0908180918B028F5F0D
:1009F0008F7320918C02821751F0E0918B02F0E00E
:100A0000EE58FD4F958F80938B0201C08081FF913E
:100A1000EF919F918F912F910F900FBE0F901F908C
:100A200018951F920F920FB60F9211242F933F9398
:100A30004F935F936F937F938F939F93AF93BF93E6
:100A4000EF93FF9382E792E00E94D503FF91EF912D
:100A5000BF91AF919F918F917F916F915F914F91D6
:100A60003F912F910F900FBE0F901F90189582E726
:100A700092E00E949A0321E0892B09F420E0822F62
:100A80000895109275021092740288EE93E0A0E02F
:100A9000B0E08093760290937702A0937802B093AF
:100AA00079028CE292E0909373028093720285EC5B
:100AB00090E090937F0280937E0284EC90E090938C
:100AC00081028093800280EC90E090938302809377
:100AD000820281EC90E0909385028093840282EC04
:100AE00090E0909387028093860286EC90E090934A
:100AF00089028093880210928B0210928C021092CD
:100B00008D0210928E02089508950E9481020E9423
:100B100084050E948C00C7ECD3E00E94420120971C
:100B2000E1F30E94C703F9CFCF92DF92EF92FF92D9
:100B30000F931F93CF93DF937C016A01EB0100E0D9
:100B400010E00C151D0571F06991D701ED91FC9134
:100B50000190F081E02DC7010995892B19F00F5FF5
:100B60001F4FEFCFC801DF91CF911F910F91FF90E1
:100B7000EF90DF90CF9008956115710581F0DB0152
:100B80000D900020E9F7AD0141505109461B570B6C
:100B9000DC01ED91FC910280F381E02D099480E06D
:100BA00090E008950C94BC05DC01ED91FC9101905E
:100BB000F081E02D099468E372E00C94BC050F937A
:100BC0001F93CF93DF93EC010E94BC058C01CE01F3
:100BD0000E94DB05800F911FDF91CF911F910F9134
:100BE00008958F929F92AF92BF92CF92DF92EF9231
:100BF000FF920F931F93CF93DF93CDB7DEB7A197EB
:100C00000FB6F894DEBF0FBECDBF7C01C42EE52F1A
:100C1000CB01D22E19A221E02D1510F02AE0D22E00
:100C20008E010F5D1F4F8D2C912CA12CB12C6C2DA2
:100C30007E2FA50194010E94F8068C2DD29E80196A
:100C40001124015011098A3014F4805D01C0895CBF
:100C5000F8018083211531054105510521F0C22E8F
:100C6000E32FCA01E4CFB801C7010E94BC05A196D9
:100C70000FB6F894DEBF0FBECDBFDF91CF911F91AD
:100C80000F91FF90EF90DF90CF90BF90AF909F902B
:100C90008F900895CF92DF92EF92FF920F931F9360
:100CA000CF93DF93EC016A017B012115310579F4C3
:100CB000E881F9810190F081E02D642FDF91CF91DF
:100CC0001F910F91FF90EF90DF90CF9009942A3001
:100CD0003105E9F477FF1AC06DE20E94D4058C015A
:100CE00044275527BA014C195D096E097F092AE08E
:100CF000CE010E94F105800F911FDF91CF911F91CE
:100D00000F91FF90EF90DF90CF9008952AE0B70108
:100D1000A601CE01DF91CF911F910F91FF90EF902F
:100D2000DF90CF900C94F1050F931F93CF93DF9337
:100D3000EC019A01AB01662757FD6095762F0E9462
:100D40004A068C01CE010E94DB05800F911FDF91C6
:100D5000CF911F910F9108952115310541F4DC01C8
:100D6000ED91FC910190F081E02D642F09940C9499
:100D7000F1050F931F93CF93DF93EC019A01462F58
:100D800050E060E070E00E94AC068C01CE010E9451
:100D9000DB05800F911FDF91CF911F910F91089577
:100DA0000F931F93CF93DF93EC019A01AB0160E0A7
:100DB00070E00E94AC068C01CE010E94DB05800F22
:100DC000911FDF91CF911F910F9108950F931F9362
:100DD000CF93DF93EC010E94AC068C01CE010E9400
:100DE000DB05800F911FDF91CF911F910F91089527
:100DF000A1E21A2EAA1BBB1BFD010DC0AA1FBB1F1F
:100E0000EE1FFF1FA217B307E407F50720F0A21B90
:100E1000B30BE40BF50B661F771F881F991F1A94FD
:100E200069F760957095809590959B01AC01BD0127
:100E3000CF010895EE0FFF1F0590F491E02D099466
:040E4000F894FFCF54
:100E44006400000019000000FFFF48EE0A012D2D88
:100E54002D2D2D2D2D2D2D2D2D2D2D2D2D2D2D2DBE
:100E64002D2D2D2D2D2D2D2D2D2D2D2D2D2D2D2DAE
:100E74002D2D2D2D2D2D2D2D2D2D2D2D2D2D2D2D9E
:100E84002D2D2D2D2D2D004257312070696E20738C
:100E94007461746520202020202020202020202020
:100EA400203A200042573120636F756E74657220BA
:100EB40020202020202020202020202020203A2014
:100EC4000042573120636F756E746572206D6178CE
:100ED40020202020202020202020203A20004257BB
:100EE40031204D6F76656D656E74202020202020A2
:100EF40020202020202020203A200042573120505A
:100F0400726573656E6365202020202020202020D8
:100F140020202020203A2000627731206C617374F5
:100F2400206D6F76656D656E74206D696C6C697388
:100F340020203A20006277315F70696E5F537461DC
:100F440074655F6368616E67655F6C617374206D5F
:100F5400696C6C697320203A20004C44522056611D
:100F64006C756520203A20000000000018049405E8
:100F74009A03B303A503F6030D0A006E616E0069BC
:0A0F84006E66006F7666002E000016
:00000001FF
